{
  "contractName": "FlipContract",
  "abi": [
    {
      "anonymous": false,
      "inputs": [
        {
          "indexed": true,
          "internalType": "address",
          "name": "previousOwner",
          "type": "address"
        },
        {
          "indexed": true,
          "internalType": "address",
          "name": "newOwner",
          "type": "address"
        }
      ],
      "name": "OwnershipTransferred",
      "type": "event"
    },
    {
      "anonymous": false,
      "inputs": [
        {
          "indexed": true,
          "internalType": "address",
          "name": "user",
          "type": "address"
        },
        {
          "indexed": true,
          "internalType": "uint256",
          "name": "bet",
          "type": "uint256"
        },
        {
          "indexed": true,
          "internalType": "bool",
          "name": "win",
          "type": "bool"
        },
        {
          "indexed": false,
          "internalType": "uint8",
          "name": "side",
          "type": "uint8"
        }
      ],
      "name": "bet",
      "type": "event"
    },
    {
      "anonymous": false,
      "inputs": [
        {
          "indexed": false,
          "internalType": "address",
          "name": "owner",
          "type": "address"
        },
        {
          "indexed": false,
          "internalType": "uint256",
          "name": "funding",
          "type": "uint256"
        }
      ],
      "name": "funded",
      "type": "event"
    },
    {
      "inputs": [],
      "name": "ContractBalance",
      "outputs": [
        {
          "internalType": "uint256",
          "name": "",
          "type": "uint256"
        }
      ],
      "stateMutability": "view",
      "type": "function",
      "constant": true
    },
    {
      "inputs": [],
      "name": "owner",
      "outputs": [
        {
          "internalType": "address",
          "name": "",
          "type": "address"
        }
      ],
      "stateMutability": "view",
      "type": "function",
      "constant": true
    },
    {
      "inputs": [],
      "name": "renounceOwnership",
      "outputs": [],
      "stateMutability": "nonpayable",
      "type": "function"
    },
    {
      "inputs": [
        {
          "internalType": "address",
          "name": "newOwner",
          "type": "address"
        }
      ],
      "name": "transferOwnership",
      "outputs": [],
      "stateMutability": "nonpayable",
      "type": "function"
    },
    {
      "inputs": [
        {
          "internalType": "uint8",
          "name": "side",
          "type": "uint8"
        }
      ],
      "name": "flip",
      "outputs": [
        {
          "internalType": "bool",
          "name": "",
          "type": "bool"
        }
      ],
      "stateMutability": "payable",
      "type": "function",
      "payable": true
    },
    {
      "inputs": [],
      "name": "withdrawAll",
      "outputs": [
        {
          "internalType": "uint256",
          "name": "",
          "type": "uint256"
        }
      ],
      "stateMutability": "nonpayable",
      "type": "function"
    },
    {
      "inputs": [],
      "name": "getBalance",
      "outputs": [
        {
          "internalType": "uint256",
          "name": "",
          "type": "uint256"
        }
      ],
      "stateMutability": "view",
      "type": "function",
      "constant": true
    },
    {
      "inputs": [],
      "name": "fundContract",
      "outputs": [],
      "stateMutability": "payable",
      "type": "function",
      "payable": true
    }
  ],
  "bytecode": "0x608060405234801561001057600080fd5b5061002d61002261003260201b60201c565b61003a60201b60201c565b6100fe565b600033905090565b60008060009054906101000a900473ffffffffffffffffffffffffffffffffffffffff169050816000806101000a81548173ffffffffffffffffffffffffffffffffffffffff021916908373ffffffffffffffffffffffffffffffffffffffff1602179055508173ffffffffffffffffffffffffffffffffffffffff168173ffffffffffffffffffffffffffffffffffffffff167f8be0079c531659141344cd1fd0a4f28419497f9722a3daafe3b4186f6b6457e060405160405180910390a35050565b610f998061010d6000396000f3fe60806040526004361061007b5760003560e01c8063853828b61161004e578063853828b61461011d5780638da5cb5b14610148578063bd097e2114610173578063f2fde38b1461017d5761007b565b806312065fe0146100805780633b668059146100ab578063638c0637146100d6578063715018a614610106575b600080fd5b34801561008c57600080fd5b506100956101a6565b6040516100a29190610b33565b60405180910390f35b3480156100b757600080fd5b506100c06101b0565b6040516100cd9190610b33565b60405180910390f35b6100f060048036038101906100eb91906108d9565b6101b6565b6040516100fd9190610a58565b60405180910390f35b34801561011257600080fd5b5061011b610366565b005b34801561012957600080fd5b506101326103ee565b60405161013f9190610b33565b60405180910390f35b34801561015457600080fd5b5061015d6104ca565b60405161016a9190610a14565b60405180910390f35b61017b6104f3565b005b34801561018957600080fd5b506101a4600480360381019061019f91906108ac565b6105e5565b005b6000600154905090565b60015481565b60006101cc6002346106dd90919063ffffffff16565b47101561020e576040517f08c379a000000000000000000000000000000000000000000000000000000000815260040161020590610a73565b60405180910390fd5b60008260ff161480610223575060018260ff16145b610262576040517f08c379a000000000000000000000000000000000000000000000000000000000815260040161025990610b13565b60405180910390fd5b60008260ff166002426102759190610ce4565b14156102f057346001600082825461028d9190610c5b565b925050819055503373ffffffffffffffffffffffffffffffffffffffff166108fc6002346102bb9190610c01565b9081150290604051600060405180830381858888f193505050501580156102e6573d6000803e3d6000fd5b506001905061030e565b34600160008282546103029190610b7a565b92505081905550600090505b801515343373ffffffffffffffffffffffffffffffffffffffff167f271b3e8d94a67ce5e9cee03d78c310019308ea7075468a4eb2bac8b027b14c4d866040516103589190610b4e565b60405180910390a450919050565b61036e610758565b73ffffffffffffffffffffffffffffffffffffffff1661038c6104ca565b73ffffffffffffffffffffffffffffffffffffffff16146103e2576040517f08c379a00000000000000000000000000000000000000000000000000000000081526004016103d990610af3565b60405180910390fd5b6103ec6000610760565b565b60006103f8610758565b73ffffffffffffffffffffffffffffffffffffffff166104166104ca565b73ffffffffffffffffffffffffffffffffffffffff161461046c576040517f08c379a000000000000000000000000000000000000000000000000000000000815260040161046390610af3565b60405180910390fd5b3373ffffffffffffffffffffffffffffffffffffffff166108fc479081150290604051600060405180830381858888f193505050501580156104b2573d6000803e3d6000fd5b50600047146104c4576104c3610d15565b5b47905090565b60008060009054906101000a900473ffffffffffffffffffffffffffffffffffffffff16905090565b6104fb610758565b73ffffffffffffffffffffffffffffffffffffffff166105196104ca565b73ffffffffffffffffffffffffffffffffffffffff161461056f576040517f08c379a000000000000000000000000000000000000000000000000000000000815260040161056690610af3565b60405180910390fd5b600034141561057d57600080fd5b6105923460015461082490919063ffffffff16565b6001819055507fed7d0ddcc17abdb3935a0a23cd93e91b449dfeac7fd0def9f481ed5b37e18c4d33346040516105c9929190610a2f565b60405180910390a147600154146105e3576105e2610d15565b5b565b6105ed610758565b73ffffffffffffffffffffffffffffffffffffffff1661060b6104ca565b73ffffffffffffffffffffffffffffffffffffffff1614610661576040517f08c379a000000000000000000000000000000000000000000000000000000000815260040161065890610af3565b60405180910390fd5b600073ffffffffffffffffffffffffffffffffffffffff168173ffffffffffffffffffffffffffffffffffffffff1614156106d1576040517f08c379a00000000000000000000000000000000000000000000000000000000081526004016106c890610a93565b60405180910390fd5b6106da81610760565b50565b6000808314156106f05760009050610752565b600082846106fe9190610c01565b905082848261070d9190610bd0565b1461074d576040517f08c379a000000000000000000000000000000000000000000000000000000000815260040161074490610ad3565b60405180910390fd5b809150505b92915050565b600033905090565b60008060009054906101000a900473ffffffffffffffffffffffffffffffffffffffff169050816000806101000a81548173ffffffffffffffffffffffffffffffffffffffff021916908373ffffffffffffffffffffffffffffffffffffffff1602179055508173ffffffffffffffffffffffffffffffffffffffff168173ffffffffffffffffffffffffffffffffffffffff167f8be0079c531659141344cd1fd0a4f28419497f9722a3daafe3b4186f6b6457e060405160405180910390a35050565b60008082846108339190610b7a565b905083811015610878576040517f08c379a000000000000000000000000000000000000000000000000000000000815260040161086f90610ab3565b60405180910390fd5b8091505092915050565b60008135905061089181610f35565b92915050565b6000813590506108a681610f4c565b92915050565b6000602082840312156108c2576108c1610da2565b5b60006108d084828501610882565b91505092915050565b6000602082840312156108ef576108ee610da2565b5b60006108fd84828501610897565b91505092915050565b61090f81610c8f565b82525050565b61091e81610ca1565b82525050565b6000610931602183610b69565b915061093c82610da7565b604082019050919050565b6000610954602683610b69565b915061095f82610df6565b604082019050919050565b6000610977601b83610b69565b915061098282610e45565b602082019050919050565b600061099a602183610b69565b91506109a582610e6e565b604082019050919050565b60006109bd602083610b69565b91506109c882610ebd565b602082019050919050565b60006109e0602283610b69565b91506109eb82610ee6565b604082019050919050565b6109ff81610ccd565b82525050565b610a0e81610cd7565b82525050565b6000602082019050610a296000830184610906565b92915050565b6000604082019050610a446000830185610906565b610a5160208301846109f6565b9392505050565b6000602082019050610a6d6000830184610915565b92915050565b60006020820190508181036000830152610a8c81610924565b9050919050565b60006020820190508181036000830152610aac81610947565b9050919050565b60006020820190508181036000830152610acc8161096a565b9050919050565b60006020820190508181036000830152610aec8161098d565b9050919050565b60006020820190508181036000830152610b0c816109b0565b9050919050565b60006020820190508181036000830152610b2c816109d3565b9050919050565b6000602082019050610b4860008301846109f6565b92915050565b6000602082019050610b636000830184610a05565b92915050565b600082825260208201905092915050565b6000610b8582610ccd565b9150610b9083610ccd565b9250827fffffffffffffffffffffffffffffffffffffffffffffffffffffffffffffffff03821115610bc557610bc4610d44565b5b828201905092915050565b6000610bdb82610ccd565b9150610be683610ccd565b925082610bf657610bf5610d73565b5b828204905092915050565b6000610c0c82610ccd565b9150610c1783610ccd565b9250817fffffffffffffffffffffffffffffffffffffffffffffffffffffffffffffffff0483118215151615610c5057610c4f610d44565b5b828202905092915050565b6000610c6682610ccd565b9150610c7183610ccd565b925082821015610c8457610c83610d44565b5b828203905092915050565b6000610c9a82610cad565b9050919050565b60008115159050919050565b600073ffffffffffffffffffffffffffffffffffffffff82169050919050565b6000819050919050565b600060ff82169050919050565b6000610cef82610ccd565b9150610cfa83610ccd565b925082610d0a57610d09610d73565b5b828206905092915050565b7f4e487b7100000000000000000000000000000000000000000000000000000000600052600160045260246000fd5b7f4e487b7100000000000000000000000000000000000000000000000000000000600052601160045260246000fd5b7f4e487b7100000000000000000000000000000000000000000000000000000000600052601260045260246000fd5b600080fd5b7f54686520636f6e7472616374206861736e277420656e6f756768742066756e6460008201527f7300000000000000000000000000000000000000000000000000000000000000602082015250565b7f4f776e61626c653a206e6577206f776e657220697320746865207a65726f206160008201527f6464726573730000000000000000000000000000000000000000000000000000602082015250565b7f536166654d6174683a206164646974696f6e206f766572666c6f770000000000600082015250565b7f536166654d6174683a206d756c7469706c69636174696f6e206f766572666c6f60008201527f7700000000000000000000000000000000000000000000000000000000000000602082015250565b7f4f776e61626c653a2063616c6c6572206973206e6f7420746865206f776e6572600082015250565b7f496e636f727265637420736964652c206e6565647320746f2062652030206f7260008201527f2031000000000000000000000000000000000000000000000000000000000000602082015250565b610f3e81610c8f565b8114610f4957600080fd5b50565b610f5581610cd7565b8114610f6057600080fd5b5056fea26469706673582212208096345ad07cbf5a01feaf5585f9b5a99614109a3bf607224a6b9d9dd7ef6d5264736f6c63430008070033",
  "immutableReferences": {},
  "source": "// SPDX-License-Identifier: MIT\r\nimport \"../node_modules/@openzeppelin/contracts/access/Ownable.sol\";\r\nimport \"../node_modules/@openzeppelin/contracts/math/SafeMath.sol\";\r\n\r\npragma solidity ^0.8.7;\r\n\r\ncontract FlipContract is Ownable {\r\n    \r\n    using SafeMath for uint256;\r\n\r\n    uint public ContractBalance;\r\n\r\n    event bet(address indexed user, uint indexed bet, bool indexed win, uint8 side);\r\n    event funded(address owner, uint funding);\r\n\r\n    // Function to simulate coin flip 50/50 randomnes\r\n    function flip(uint8 side) public payable returns(bool){\r\n        require(address(this).balance >= msg.value.mul(2), \"The contract hasn't enought funds\");\r\n        require(side == 0 || side == 1, \"Incorrect side, needs to be 0 or 1\");\r\n        bool win;\r\n        if(block.timestamp % 2 == side){\r\n            ContractBalance -= msg.value;\r\n            payable(msg.sender).transfer(msg.value * 2);\r\n            win = true;\r\n        }\r\n        else{\r\n            ContractBalance += msg.value;\r\n            win = false;\r\n        }\r\n        emit bet(msg.sender, msg.value, win, side);\r\n    }\r\n    // Function to Withdraw Funds\r\n    function withdrawAll() public onlyOwner returns(uint){\r\n        payable(msg.sender).transfer(address(this).balance);\r\n        assert(address(this).balance == 0);\r\n        return address(this).balance;\r\n    }\r\n    // Function to get the Balance of the Contract\r\n    function getBalance() public view returns (uint) {\r\n        return ContractBalance;\r\n    }\r\n    // Fund the Contract\r\n    function fundContract() public payable onlyOwner {\r\n        require(msg.value != 0);\r\n        ContractBalance = ContractBalance.add(msg.value);\r\n        emit funded(msg.sender, msg.value);\r\n        assert(ContractBalance == address(this).balance);\r\n    }\r\n\r\n}",
  "sourcePath": "C:\\Users\\pol\\Desktop\\flipacoin\\truffle\\contracts\\flipcontract.sol",
  "compiler": {
    "name": "solc",
    "version": "0.8.7+commit.e28d00a7.Emscripten.clang"
  },
  "schemaVersion": "3.4.2",
  "updatedAt": "2021-08-12T21:13:49.604Z",
  "networkType": "ethereum",
  "devdoc": {
    "kind": "dev",
    "methods": {
      "owner()": {
        "details": "Returns the address of the current owner."
      },
      "renounceOwnership()": {
        "details": "Leaves the contract without owner. It will not be possible to call `onlyOwner` functions anymore. Can only be called by the current owner. NOTE: Renouncing ownership will leave the contract without an owner, thereby removing any functionality that is only available to the owner."
      },
      "transferOwnership(address)": {
        "details": "Transfers ownership of the contract to a new account (`newOwner`). Can only be called by the current owner."
      }
    },
    "version": 1
  },
  "userdoc": {
    "kind": "user",
    "methods": {},
    "version": 1
  }
}